:020000040000FA
:10000000000002289C30AE000130AF0080300000BC
:10001000000037210000000083120000B1002F080B
:10002000B0009E30B2000130B300831200003008EF
:10003000B4003108B500FF30B007031CB103350828
:10004000340403199A2804303207B400B501B50D01
:100050003308B5073408AE003508AF008030000023
:10006000000037210000000083120000B7002F08B5
:10007000B6003208AE003308AF0080300000000048
:1000800037210000000083120000B900B5002F08DE
:10009000B400B80002303207B400B501B50D330822
:1000A000B5073408AE003508AF008030000000000E
:1000B00037210000000083120000B500BB002F08AC
:1000C000BA00B400831200003608BA003708BB003B
:1000D000FF30B607031CB7033B083A040319932803
:1000E0003808AE003908AF0080300000000024213D
:1000F0000000000083120000BA00340883120313CA
:100100008400831383120000351883173A08831282
:100110000313800083120000B80A0319B90AB40A55
:100120000319B50A6228063083120000B2070318CB
:10013000B30A1528000000005829080083120000A7
:10014000C5002F08C4002E08C7002D08C600C8012E
:10015000C9018312000047088039031D0130CA001D
:100160004A08031DCA280310C60DC70D47084502DB
:10017000031DBC28460844020318C4280310831238
:100180000000C70CC60CCA2883120000C90A49081F
:10019000C800A9288312000047084502031DD22881
:1001A00046084402031CDC28831200004608C402EF
:1001B0004708031C470FC502031083120000C70C39
:1001C000C60C4808C900C8034908031DCA284408CA
:1001D000AF0045080800C3002F08C20000304302EA
:1001E000031DF42801304202031C2329003043027E
:1001F000031DFC280730420203182329C2030130E3
:100200008A000630420703188A0A82000C29102946
:10021000142918291C29202920308312850023291C
:10022000043083128500232930308312850023296E
:10023000123083128500232932308312850023294E
:100240001630831285000800003A03192B29803AE2
:100250000319322900342E08840083132F188317C2
:10026000000808002F088A002E0882000800003AC3
:1002700003193F29803A03194929AF0100342E0898
:10028000840083132F1883170008AF00840A000826
:100290000800000000003221AD00AE0FAF03AF0A2E
:1002A000000000003221AC002D08AF002C0808002F
:1002B00093218A217221BD002F08BC000630AD00B9
:1002C0000030AE003C08AF003D089E20BD002F0866
:1002D000BC00BC0A0319BD0A3C08AF003D08EB2076
:1002E0006C29080083129F1483129F1874291E081A
:1002F000C100BE00BF01C00183161E08BE00BF01C1
:100300003E08C007003003183F0FC1074008AF0088
:1003100041080800703083169F0407308312990447
:100320009F171F14080009308316850571309F053B
:10033000083083128505080001340034A4340134E8
:0A0340004B34003401340034003463
:02400E00F73F7A
:00000001FF
